:020000021000EC
:10FC00001F92CDB7DEB7112484B714BE81FF0FD188
:10FC100085E08093810082E08093C00088E180933A
:10FC2000C10086E08093C20080E18093C4008EE032
:10FC3000E9D0209A26E088E19EEF31E0909385009C
:10FC40008093840036BBB09BFECF189AA8952150B4
:10FC5000A9F7612C712C53E0D52ECC24C39461E11B
:10FC6000B62EB7D0813469F4B4D08983D1D08981DC
:10FC7000823819F1813811F486E001C083E0A2D006
:10FC80009EC0823411F484E103C0853419F485E008
:10FC9000C7D095C0853569F49CD0682E9AD0712C58
:10FCA000782A872D881F8827881F8BBF660C771CB2
:10FCB00085C0863521F484E0B3D080E0E0CF84367F
:10FCC00009F04EC092D07C0184D0A82E8701812CEF
:10FCD000992493947ED0F40181934F01015011092E
:10FCE00001151105B9F794D0F5E4AF1212C0E60C76
:10FCF000F71C8301812C992493940E151F0509F498
:10FD00005EC0F40161914F01C8019FD00F5F1F4F8A
:10FD1000F4CFF301D7BEE89507B600FCFDCFA301F1
:10FD2000A0E0B1E08C9112969D0121503109F901BA
:10FD3000208190E0922BFA010C01C7BEE8951124B6
:10FD40004E5F5F4FA115F2E0BF0761F785E0F30159
:10FD500087BFE89507B600FCFDCFB7BEE8952FC07A
:10FD60008437F9F442D08C0134D0898351D0898111
:10FD70007301853461F4C70160D024D001501109AA
:10FD8000FFEFEF1AFF0A01151105A9F718C0F701D7
:10FD900087917F0117D00150110901151105B9F79D
:10FDA0000EC0853739F434D08EE10CD087E90AD003
:10FDB00085E065CF813511F488E024D029D080E139
:10FDC00001D04FCF9091C00095FFFCCF8093C6002B
:10FDD00008958091C00087FFFCCF8091C00084FD12
:10FDE00001C0A8958091C6000895CF93F2DFC82F77
:10FDF000F0DF2C2F30E0322F2227A901482BCA0137
:10FE0000CF910895E0E6F0E098E190838083089533
:10FE1000E0DF803219F088E0F5DFFFCF84E1D2CF58
:10FE2000CF93C82FD6DFC150E9F7CF91F1CF282E5D
:10FE300080E0E8DFEE27FF270994F999FECF92BD15
:10FE400081BDF89A992780B50895262FF999FECF9C
:10FE50001FBA92BD81BD20BD0FB6F894FA9AF99AE7
:06FE60000FBE019608959B
:02FFFE000006FB
:040000031000FC00ED
:00000001FF
