:107E00001F92CDB7DEB7112484B714BE81FFEAD02C
:107E100085E08093810082E08093C00088E18093B8
:107E2000C10086E08093C20080E18093C4008EE0B0
:107E3000C4D0259A26E088E19EEF31E0909385003A
:107E40008093840036BBB09BFECF1D9AA89521502D
:107E5000A9F7612C712C43E0D42ECC24C39455E0B7
:107E6000B52E61E1A62E90D0813469F48DD089833E
:107E7000AAD089818238F1F0813811F486E001C0FE
:107E800083E07BD077C0823411F484E103C0853471
:107E900019F485E0A0D06EC0853541F475D0682E08
:107EA00073D0712C782A660C771C63C0863521F458
:107EB00084E091D080E0E5CF843609F03BC070D0FB
:107EC0008C0162D0982EE12CFF24F3945DD0F70151
:107ED00081937F010150110901151105B9F773D084
:107EE000F5E49F1201C0FFCFF301D7BEE89507B6B6
:107EF00000FCFDCFA301A0E0B1E08C9112969D01A2
:107F000021503109F901208190E0922BFA010C01F6
:107F1000C7BEE89511244E5F5F4FA038F1E0BF0760
:107F200061F7F301B7BEE89507B600FCFDCFA7BE29
:107F3000E89520C0843781F433D07C0125D043D02C
:107F40008301F80185918F0118D0F1E0EF1AF10853
:107F5000E114F104B1F70EC0853739F434D08EE165
:107F60000CD085E90AD08FE08CCF813511F488E000
:107F700024D029D080E101D076CF9091C00095FF28
:107F8000FCCF8093C60008958091C00087FFFCCF8E
:107F90008091C00084FD01C0A8958091C60008951D
:107FA000CF93F2DFC82FF0DF2C2F30E0322F2227C3
:107FB000A901482BCA01CF910895E0E6F0E098E1CD
:107FC000908380830895E0DF803219F088E0F5DF48
:107FD000FFCF84E1D2CFCF93C82FD6DFC150E9F7CE
:107FE000CF91F1CF282E80E0E8DFEE27FF2709941C
:027FFE0000067B
:0400000300007E007B
:00000001FF
